:02000000422993
:0400060000000800EE
:10000A00103083120313FD00FD0B092800000800BD
:10001A00083083120313FC002330FD00FD0B132864
:06002A00FC0B1328080086
:1000300083120313AA1B1E2886111F2886152A1B4C
:100040002328061124280615AA1A282886102928EC
:1000500086142A1A2D2806102E2806142018322855
:10006000061633280612861603208612AA193A2885
:1000700086113B2886152A193F28061140280615A7
:10008000AA1844288610452886142A1849280610DC
:100090004A28061420184E2806164F2806128616DF
:1000A00003208612201C56280D2057280520080002
:1000B0008312031320102708AA0018202014080018
:1000C0007228803083120313A7008528C030A70050
:1000D00085289430A7008528D430A7008528803053
:1000E000A7008528831203132708013A0319612802
:1000F0002708023A031966282708033A03196928D2
:100100002708043A03196C286F282803F0002708F1
:10011000F0077008A70020147008AA00182020100B
:0A0120002908AA0018202014080086
:0E012A008312031323088A00220882000800B3
:1001380095208A110A128000840AA20A0319A30AC8
:08014800F003031D9C280800D0
:10015000403083120313AA001820A6012608073C8A
:10016000031CC4282608893EF00001300318013E14
:10017000F1007008A2007108A30095208A110A12EC
:10018000A7005820A60AAE280230AA00182024088A
:0C019000A7002508A800A90160200800B5
:10019C00403083120313AA001820A6012608073C3E
:1001AC00031CEA282608913EF00001300318013E9A
:1001BC00F1007008A2007108A30095208A110A12A0
:1001CC00A7005820A60AD4280230AA001820240818
:0C01DC00A7002508A800A9016020080069
:1001E800831603138612061206108610061186114E
:1001F80083128612061286110611861006100D202B
:100208000D200D20861406148616032086120D2054
:100218008616032086120D208616032086120D20CE
:1002280006108616032086120D20861603208612D5
:10023800861086158616032086120D208611061450
:1002480086160320861206108616032086120D20B5
:1002580086160320861206148616032086120D20A1
:1002680006108616032086128615061586140614AF
:0C0278008616032086120D2020140800BA
:100284008316031788018901860103138801F4206A
:10029400A10121080F3C031C872901302105F1002D
:1002A4007108003A031D6E290130A4002108A5003D
:1002B400CE200C30AA0018200230FB008630FC004F
:1002C4009930FD00FD0B6429FC0B6429FB0B6429A8
:1002D4000130AA00182085290130A4002108A500B6
:1002E400A8200C30AA0018200230FB008630FC0045
:1002F4009930FD00FD0B7C29FC0B7C29FB0B7C2930
:0E0304000130AA001820A10A4B294A29882995
:1003120000340E341B341F341F340E3400340034C6
:1003220000340F341A341C341E340F3400340034B9
:04400E00D2230007B2
:00000001FF
